:100000000C944F010C9480010C9480010C9480019D
:100010000C9480010C9480010C9480010C9480015C
:100020000C9480010C94660B0C94660B0C94660B7C
:100030000C9480010C94BA0B0C9480010C948001F8
:100040000C9480010C94340E0C9480010C9480016B
:100050000C9480010C9480010C9480010C94700B22
:100060000C9480010C94290D0C94FF0C0C948001CD
:100070000C9480010C9480010C9480010C948001FC
:100080000C9480010C9480010C9480010C948001EC
:100090000C9480010C9480010C9480010C94DC0E73
:1000A0000C9480010C9480010C9480010C948001CC
:1000B0000C9480010C9480010C9480010C94530DDD
:1000C0000C9480010C9480010C9480010C94D50C4C
:1000D0000C94AB0C0C9480010C94810C0C94570C78
:1000E0000C9480010C94DD010C947B030C943A0871
:1000F0000C9482010C9400060C94AC010C94D50174
:100100000C94B4010C94B7010C94CF010C94170417
:100110000C949A060C94A8010C94C1010C94E7016C
:100120000C94E2010C94B8020C9400100C9483011E
:100130000C94B0010C94C8030C94E3010C94A2013C
:100140000C94C1150C940D030C9457060C94C70124
:100150000C942A060C9423060C94FE020C940106BF
:100160000C94CB010C942F030C94BD010C9410063D
:100170000C9421030C94D9010000200023002600D8
:1001800029002C002F0032000001000003010601AD
:1001900009010200002100240027002A002D003060
:1001A00000330001010000040107010A01000022E0
:1001B00000250028002B002E003100340002010031
:1001C00000050108010B01050505050705080808DC
:1001D00008020202020A0A080804040404010101D8
:1001E00001010101010303030303030303040707E0
:1001F000070C0C0C0C0C0C0C0C020202020606067E
:1002000006060606060B0B0B0B0B0B0B0B01021065
:100210002020080810204010204080020102010820
:1002200004020101020408102040808040201008D0
:100230000402018004020180402010080402010829
:100240000402010102040810204080010204081089
:1002500020408000000A0B02090C0D0E0807030461
:10026000010000000000000000000000000000008D
:10027000000000000000000000000000000000126C
:10028000111000000000000000000000000000004D
:10029000000000000000000000000010C115112443
:1002A0001FBECFEFD1E2DEBFCDBF00E00CBF12E03A
:1002B000A0E0B2E0E8E1F5E300E00BBF02C0079088
:1002C0000D92AA35B107D9F727E0AAE5B2E001C03F
:1002D0001D92AA33B207E1F711E0CEE4D1E000E0CD
:1002E00006C021970109802FFE010E943017CD34EE
:1002F000D10780E00807A9F70E94FD110C947A1A33
:100300000C940000089508958150823108F05AC07D
:10031000E82FF0E08827E057FE4F8F4F0C943017FE
:10032000B001B401A201A801AC01E201B701BD0115
:10033000C101C701CB01CF01D501D901E201DD0126
:10034000E301E701809180008F778093800008951A
:10035000809180008F7DF9CF80918000877FF5CFDD
:1003600084B58F7784BD089584B58F7DFBCF809150
:10037000B0008F778093B00008958091B0008F7D9A
:10038000F9CF809190008F778093900008958091AD
:1003900090008F7DF9CF80919000877FF5CF80917D
:1003A000A0008F778093A00008958091A0008F7D9A
:1003B000F9CF8091A000877FF5CF809120018F77C2
:1003C000809320010895809120018F7DF9CF809145
:1003D0002001877FF5CF1F93CF93DF93282F30E045
:1003E000F901ED5AFD4F8491F901E35FFD4FD4917E
:1003F000F901E953FE4FC491CC23A9F0162F8111C6
:100400000E948401EC2FF0E0EE0FFF1FE355FE4F3A
:10041000A591B4918FB7F894EC91111108C0D095C3
:10042000DE23DC938FBFDF91CF911F910895DE2BE8
:10043000F8CFCF93DF9390E0FC01E35FFD4F249171
:1004400089539E4FFC0184918823D1F090E0880F5E
:10045000991FFC01ED56FE4FA591B491FC01E355A7
:10046000FE4FC591D49161110EC09FB7F8948C9145
:10047000E22FE0958E238C932881E223E8839FBFAF
:10048000DF91CF9108958FB7F894EC91E22BEC9324
:100490008FBFF6CF90917B00977F90937B00865320
:1004A000806480937C0080917A00806480937A00DD
:1004B00080917A0086FDFCCF809178009091790040
:1004C00008953FB7F8948091C3029091C402A0911F
:1004D000C502B091C60226B5A89B05C02F3F19F0F2
:1004E0000196A11DB11D3FBFBA2FA92F982F8827B4
:1004F000BC01CD01620F711D811D911D42E0660F8F
:10050000771F881F991F4A95D1F708958F929F9260
:10051000AF92BF92CF92DF92EF92FF924B015C01BC
:100520000E9461026B017C010E9461026C197D09CD
:100530008E099F09683E734081059105A8F321E06B
:10054000821A9108A108B10888EEC80E83E0D81E6F
:10055000E11CF11C81149104A104B10429F7FF905E
:10056000EF90DF90CF90BF90AF909F908F900895C5
:10057000AF92BF92CF92DF92EF92FF920F931F93B1
:10058000CF93DF936C017B018B01040F151FEB01EF
:100590005E01AE18BF08C017D10759F06991D601A6
:1005A000ED91FC910190F081E02DC6011995892B08
:1005B00079F7C501DF91CF911F910F91FF90EF90D7
:1005C000DF90CF90BF90AF900895FC01A089B189D2
:1005D0008C91A689B78982FD0FC09C91818D8F5F18
:1005E0008F73228D821749F0A18DAE0FBF2FB11DE1
:1005F0005D969C93818F08958C910895FC01538D95
:10060000448D252F30E0842F90E0821B930B5417EC
:1006100010F0CF96089501970895FC01918D828D79
:10062000981761F0A28DAE0FBF2FB11D5D968C9112
:10063000928D9F5F9F73928F90E008958FEF9FEF51
:100640000895FC01918D828D981731F0828DE80F0D
:10065000F11D858D90E008958FEF9FEF0895FC01C7
:10066000918D228D892F90E0805C9F4F821B910994
:100670008F73992708958FE393E00E942F0321E061
:10068000892B09F420E0822F08958CED93E00E94DD
:100690002F0321E0892B09F420E0822F089589E7B8
:1006A00094E00E942F0321E0892B09F420E0822F9F
:1006B0000895FC01A48DA80FB92FB11DA35ABF4FF7
:1006C0002C91848D90E001968F739927848FA68951
:1006D000B7892C93A089B1898C91837080648C93A5
:1006E000938D848D981306C00288F389E02D808154
:1006F0008F7D80830895EF92FF920F931F93CF9386
:10070000DF93EC0181E0888F9B8D8C8D98131AC04C
:10071000E889F989808185FF15C09FB7F894EE8933
:10072000FF896083E889F989808183708064808390
:100730009FBF81E090E0DF91CF911F910F91FF90DB
:10074000EF900895F62E0B8D10E00F5F1F4F0F7383
:100750001127E02E8C8D8E110CC00FB607FCFACF3E
:10076000E889F989808185FFF5CFCE010E94590380
:10077000F1CFEB8DEC0FFD2FF11DE35AFF4FF0820F
:100780009FB7F8940B8FEA89FB8980818062CFCF75
:10079000CF93DF93EC01888D8823B9F0AA89BB89B8
:1007A000E889F9898C9185FD03C0808186FD0DC0A3
:1007B0000FB607FCF7CF8C9185FFF2CF808185FFC4
:1007C000EDCFCE010E945903E9CFDF91CF9108957B
:1007D000F0E0E0E0199480E090E0892B29F00E949D
:1007E0004F0381110E94000080E090E0892B49F0C6
:1007F00080E090E0892B29F00E94000081110E9486
:1008000000000E94450381110E94E80380E090E00F
:10081000892B29F00E943B0381110C94000008955C
:100820008EBD00000DB407FEFDCF8EB5089508956E
:1008300020919402260F3327331F21323105ECF427
:1008400020911503FC0190E080E0243069F082E003
:100850000895A09194022191AC014C585D4FA40FD2
:10086000B52FB11D2C930196861798F380919402B1
:10087000680F6093940280E0089581E008951092DB
:10088000150381E0809314031092EF0261E084E18C
:100890000E94EB0161E085E10E94EB01E9EBF0E0F1
:1008A00080818E7F808380818D7F808388E48093A8
:1008B000B80085E48093BC0008951092CE02109297
:1008C000CD0210921C0310923E030E943F0482E866
:1008D00091E09093CC028093CB0283E891E09093D7
:1008E000CA028093C9020895CF93DF9391E0909359
:1008F00073028823B9F0C091B800D091BA008091FA
:10090000BC008A7B8093BC0060E084E10E94EB0124
:1009100060E085E10E94EB010E943F04D093BA00A1
:10092000C093B800DF91CF9108958F929F92AF92BC
:10093000BF92CF92DF92EF92FF920F931F93CF93CC
:10094000DF93D0913E03D13208F0D7C0182FC09169
:100950003D030E9461026B017C01809115038111AE
:100960006BC082E080931503109314038FEF809384
:10097000130310921203D0931103ADE1B3E0E1EF42
:10098000F2E080E0D81391C01092F0028091F00262
:10099000CC0FC82BC093F0028091EF02813009F098
:1009A00088C01092EF020E9461026B017C0180916D
:1009B000F0028093BB008091170390911803A091DF
:1009C0001903B0911A03892B8A2B8B2BA1F00E945B
:1009D00061020091170310911803209119033091BF
:1009E0001A036C197D098E099F0906171707280736
:1009F000390708F442C08091BC0083FDD8CF85EC54
:100A00008093BC000E9461026B017C018091150300
:100A1000823009F450C0809113038F3F09F46FC0F6
:100A200080911303803209F46CC0809113038033EA
:100A300009F469C084E026C08091170390911803DF
:100A4000A0911903B0911A03892B8A2B8B2B09F4DF
:100A500084CF0E9461028090170390901803A090A9
:100A60001903B0901A036C197D098E099F09861627
:100A70009706A806B90608F070CF809116030E9469
:100A8000740485E010921C0310923E0310921B0325
:100A9000DF91CF911F910F91FF90EF90DF90CF905A
:100AA000BF90AF909F908F9008959D9191938F5F8D
:100AB00069CF85EEA5CF8091170390911803A0917F
:100AC0001903B0911A03892B8A2B8B2B09F49ECF23
:100AD0000E946102009117031091180320911903DD
:100AE00030911A036C197D098E099F0906171707A3
:100AF0002807390708F08ACFC0CF81E0C3CF80E054
:100B0000C1CF82E0BFCF83E0BDCF0F931F93CF93C0
:100B1000DF93162F072FCDEED6E0AA85BB859C85E7
:100B200021E020931B0390933D0310921C0310922D
:100B30003E03ED91FC9111970190F081E02D682F1B
:100B4000CD0119958A859B85DC01ED91FC91019081
:100B5000F081E02D602F19958A859B85DC01ED9150
:100B6000FC910190F081E02D612F199581E0DF91DA
:100B7000CF911F910F910C9495041F93CF93DF9306
:100B8000EA01122FDC0111968D919C91DC01ED910F
:100B9000FC910280F381E02D1995C817D90729F43B
:100BA000812F0E94950491E0811190E0892FDF91BF
:100BB000CF911F910895CF93DF93EC018B81882310
:100BC000A1F0888191E090931B0380933D031092E4
:100BD0001C0310923E0381E00E94950491E0811174
:100BE00090E0892FDF91CF9108950E945D0481E00C
:100BF0008B83CE010E94DB05982F8111E2CFF1CFCC
:100C00000895E091CE028091CD02E81730F4F0E033
:100C1000E153FD4F808190E008958FEF9FEF08959D
:100C20009091CE028091CD022FEF3FEF981748F4BC
:100C3000E92FF0E0E153FD4F208130E09F5F90937A
:100C4000CE02C90108958091CD029091CE02891BF8
:100C5000990B0895CF92DF92EF92FF920F931F931B
:100C6000CF93DF937C01CB018A0120911B032223C8
:100C700089F0EB016B01C40ED51ECC15DD0569F0C2
:100C80006991D701ED91FC910190F081E02DC701B0
:100C90001995F3CF642F0E941804C801DF91CF91FA
:100CA0001F910F91FF90EF90DF90CF900895CF9319
:100CB000DF931F92CDB7DEB7698320911B032223F8
:100CC000F9F020913E03203258F021E030E0FC01A1
:100CD0003383228390E080E00F90DF91CF910895DD
:100CE00080911C03E82FF0E0E35EFC4F9981908334
:100CF0008F5F80931C0380933E0381E090E0ECCFF4
:100D000061E0CE0101960E941804F7CFFC01248116
:100D100031E030931B0320933D0310921C0310928B
:100D20003E038485682B84E297E00E94570681E0A9
:100D30000C94950490E080E00895CF93DF931F9288
:100D40001F92CDB7DEB7806889836A8380913007B0
:100D500090913107FC01248135812230310590F0DA
:100D6000208131E030931B0320933D0310921C033C
:100D700010923E0321E042E050E0BE016F5F7F4FE2
:100D80000E94BD050F900F90DF91CF9108952F9293
:100D90003F924F925F926F927F928F929F92AF920B
:100DA000BF92CF92DF92EF92FF920F931F93CF9358
:100DB000DF93DC011496ED91FC911597EF2B09F46C
:100DC00025C169012A01EC01888191E090931B0300
:100DD00080933D0310921C0310923E0320E041E0FB
:100DE00050E0CD010E94BD05782E882309F40EC184
:100DF000F12CE12C332433948C819D8186010E19D2
:100E00001F098017910708F48C0128800E94610255
:100E10004B015C0180911503811173C0602EB0E21B
:100E2000B01710F480E2682E3092150321E0C6015D
:100E3000801B910BE816F90608F420E020931403B8
:100E4000EFEFE0931303109212038FEF860D809360
:100E500011033092F0028091F002220C282A209295
:100E6000F0028091EF02813009F090C01092EF0201
:100E70000E9461024B015C018091F0028093BB00F3
:100E80008091170390911803A0911903B0911A0350
:100E9000892B8A2B8B2BA1F00E94610220911703D2
:100EA000309118034091190350911A036819790978
:100EB0008A099B09261737074807590708F442C0D3
:100EC0008091BC0083FDD8CFF5ECF093BC000E946C
:100ED00061024B015C0180911503813009F45AC015
:100EE00080911203861510F460901203A1EFB2E016
:100EF000EFECF2E080E0861551F19D9191938F5FC8
:100F0000FACF8091170390911803A0911903B09123
:100F10001A03892B8A2B8B2B09F47CCF0E94610248
:100F200020911703309118034091190350911A032F
:100F3000681979098A099B0926173707480759074D
:100F400008F068CF809116030E947404612C1092FF
:100F5000CE026092CD026016110609F057C0420120
:100F60008E0C9F1C5401C50188199909801791079F
:100F700098F589819A81DC01ED91FC910284F385D9
:100F8000E02D1995F50181935F01EDCF85EE8093FA
:100F9000BC009DCF8091170390911803A091190375
:100FA000B0911A03892B8A2B8B2B09F494CF0E94C2
:100FB0006102209117033091180340911903509159
:100FC0001A03681979098A099B0926173707480700
:100FD000590708F080CFB6CFE00EF11EEC14FD04E7
:100FE00008F40ACF872DDF91CF911F910F91FF90C9
:100FF000EF90DF90CF90BF90AF909F908F907F90B9
:101000006F905F904F903F902F900895712CEACF92
:10101000CF93DF931F921F92CDB7DEB71A8219824A
:101020008068898322E030E0AE014F5F5F4FBA01F4
:1010300080913007909131070E94C70689819A817B
:101040000F900F90DF91CF9108950F931F93CF933F
:101050008C01C62F64600E9486066C2F6B7FC801CE
:101060000E94860683EC90E00197F1F7CF911F91E3
:101070000F9108950F931F93CF93DF938C01C62F89
:10108000D62FD07FD1606D2F0E9486066D2FC801AC
:101090000E94250880E1C89FE0011124C1606C2FE7
:1010A000C8010E9486066C2FC8010E94250881E0B5
:1010B00090E0DF91CF911F910F910895FC01019075
:1010C0000020E9F73197AF01481B590BBC0189E7B4
:1010D00094E00C94B8028F929F92AF92BF920F93BC
:1010E0001F93CF93DF93CDB7DEB7A1970FB6F894D8
:1010F000DEBF0FBECDBF19A2423008F44AE08E0118
:101100000F5D1F4F842E912CB12CA12CA5019401B1
:101110000E94EE16E62FB901CA01EA30F4F4E05D50
:10112000D801EE938D01232B242B252B79F790E00A
:1011300080E0109719F0CD010E945E08A1960FB6CD
:10114000F894DEBF0FBECDBFDF91CF911F910F91FD
:10115000BF90AF909F908F900895E95CE1CF4F9240
:101160005F926F927F928F929F92AF92BF92CF9237
:10117000DF92EF92FF920F931F93CF936B017C014D
:10118000742EAC019B010E945F18882399F08FE3B5
:1011900092E0CF911F910F91FF90EF90DF90CF9051
:1011A000BF90AF909F908F907F906F905F904F9087
:1011B0000C945E0846015701E894B7F82FEF3FEF13
:1011C0004FE75FE7C501B4010E945F1881110DC0B0
:1011D0002FEF3FEF4FE75FE7C501B4010E94CA154B
:1011E00018161CF483E492E0D4CF2FEF3FEF4FE7C3
:1011F0005FE4C701B6010E945A1818161CF487E470
:1012000092E0C7CF2FEF3FEF4FE75FECC701B6018A
:101210000E94CA1587FDF3CF20E030E0A901C70185
:10122000B6010E94CA1510E000E087FF0AC06DE217
:1012300089E794E00E947B038C01F7FAF094F7F8B9
:10124000F094C0E060E070E080E09FE37C1641F045
:1012500020E030E040E251E40E94B917CF5FF6CFC2
:10126000A70196010E944D172B013C010E942B18EB
:101270004B015C014AE00E946B087C01E00EF11E0C
:10128000CC23C1F1C501B4010E94CF159B01AC0173
:10129000C301B2010E944C174B015C016EE289E769
:1012A00094E00E947B03E80EF91EC15018F120E083
:1012B00030E040E251E4C501B4010E9430162B0138
:1012C0003C010E942B184B01B12CA12C4AE0C50116
:1012D000B4010E946B08E80EF91EC501B4010E941A
:1012E000CF159B01AC01C301B2010E944C174B0109
:1012F0005C01DBCFC701CF911F910F91FF90EF9061
:10130000DF90CF90BF90AF909F908F907F906F9025
:101310005F904F900895FF920F931F93CF93DF93A9
:101320001F92CDB7DEB780913007909131070097BB
:1013300011F00E94001986E090E00E9464188C0170
:1013400089E2F801808384E297E0928381831382AB
:1013500080E290E0958384831093310700933007F7
:101360000E945D0481E0F8018383C8010E94DB05CF
:10137000182F811109C010E0812F0F90DF91CF91BC
:101380001F910F91FF90089582E9898321E030E059
:10139000AE014F5F5F4FBA018091300790913107E6
:1013A0000E94C70689818D3421F0843411F0803188
:1013B00011F781E08093320700913507602F0E947A
:1013C0009D060093350700913307F0903407809114
:1013D0003207811102C00E948B09602F8FE00E94AA
:1013E0009D0600933307F092340761E080E00E948D
:1013F0009D0663E070E080E090E00E94860263E07A
:1014000080E00E949D068091350720E031E0281B96
:1014100031094CE0429FC001439F900D112465E0CB
:1014200070E00E941C176F5F7F4F072E000C880B27
:10143000990B0E948602A0CF4F925F926F927F928B
:101440008F929F92AF92BF92CF92DF92EF92FF92D4
:10145000CF93DF9300D000D01F921F92CDB7DEB79D
:1014600080913207811102C00E948B0984E10E94A1
:10147000080886E10E9408085C0188E10E940808CB
:101480003C018AE10E9408089A838983809135078C
:1014900020E031E0281B31094CE0429FC001439F0E
:1014A000900D112465E070E00E941C176F5F7F4F64
:1014B000072E000C880B990B0E948602B501660D61
:1014C000771D29813A81620F731F90E080E00E94AE
:1014D000CF156B017C0120E030E0A9010E94CA1504
:1014E000811106C0C12CD12C80E8E82E8FE3F82EA4
:1014F000B50190E080E00E94CF15A70196010E94FF
:10150000B9174B015C01B30190E080E00E94CF1558
:10151000A70196010E94B9172B013C0129813A814C
:10152000B90190E080E00E94CF15A70196010E94CA
:10153000B9176B017C0126E636E646EA5FE30E94B6
:10154000301669837A838B839C83A50194010E9462
:10155000CA1587FF0EC026E636E646EA5FE3C301FA
:10156000B2010E943016A50194010E94CA1587FDA0
:1015700069C026E636E646EA5FE3C501B4010E948B
:1015800030166D837E838F839887A70196010E9412
:10159000CA1587FF0EC026E636E646EA5FE3C301BA
:1015A000B2010E943016A70196010E94CA1587FD5C
:1015B0004CC0A30192016D817E818F8198850E942C
:1015C000CA1587FF0AC0A301920169817A818B81C4
:1015D0009C810E94CA1587FD3BC0A3019201C501F1
:1015E000B4010E944D1720E030E040E05FE30E942C
:1015F00030164B015C012AE939E949E95FE3C7018B
:10160000B6010E9430169B01AC01C501B4010E94D5
:101610005A18181604F18FEF9FEF28960FB6F8941A
:10162000DEBF0FBECDBFDF91CF91FF90EF90DF9077
:10163000CF90BF90AF909F908F907F906F905F9072
:101640004F90089590E080E0E8CF82E090E0E5CF11
:1016500081E090E0E2CF83E090E0DFCF85ED809302
:10166000BC008091170390911803A0911903B091C9
:101670001A030796A11DB11D23E0B695A79597956E
:1016800087952A95D1F72091BC0024FD03C01092C4
:1016900015030895409117035091180360911903A1
:1016A00070911A03452B462B472B69F30097A10530
:1016B000B10541F025E32A95F1F700000197A10952
:1016C000B109E1CF809116030C9474041F920F921C
:1016D0000FB60F9211240F900FBE0F901F90189508
:1016E0001F920F920FB60F9211242F933F938F9357
:1016F0009F93AF93BF938091BF029091C002A0913E
:10170000C102B091C2023091BE0223E0230F2D37F7
:1017100058F50196A11DB11D2093BE028093BF0212
:101720009093C002A093C102B093C2028091C30201
:101730009091C402A091C502B091C6020196A11D6C
:10174000B11D8093C3029093C402A093C502B093CD
:10175000C602BF91AF919F918F913F912F910F90B2
:101760000FBE0F901F90189526E8230F0296A11D1B
:10177000B11DD2CF1F920F920FB60F9211240BB64C
:101780000F922F933F934F935F936F937F938F931A
:101790009F93AF93BF93EF93FF938091B902909182
:1017A000BA02A091BB02B091BC02892B8A2B8B2B71
:1017B000D1F19091B80280910000892780930000B8
:1017C0008091B9029091BA02A091BB02B091BC0283
:1017D000181619061A061B069CF48091B9029091FE
:1017E000BA02A091BB02B091BC020197A109B10954
:1017F0008093B9029093BA02A093BB02B093BC024B
:10180000FF91EF91BF91AF919F918F917F916F91D8
:101810005F914F913F912F910F900BBE0F900FBE94
:101820000F901F90189580910002E2E9F1E0E49199
:101830009FEF90930002E230E9F040F4EE2389F04C
:10184000E13091F060E00E94EB01DACFE43049F141
:1018500010F1E530B9F7909173009D7F909373007C
:10186000F1CF10926E00EECF90916F009D7F90931C
:101870006F00E8CF909170009D7F9093700091E091
:101880009093B0009091B100987F94609093B100D4
:101890001092B300D7CF909171009D7F909371000B
:1018A000D1CF909172009D7F90937200CBCF1F9209
:1018B0000F920FB60F9211240BB60F922F933F93F6
:1018C0004F935F936F937F938F939F93AF93BF9348
:1018D000EF93FF938FE393E00E945903FF91EF9101
:1018E000BF91AF919F918F917F916F915F914F9138
:1018F0003F912F910F900BBE0F900FBE0F901F9036
:1019000018951F920F920FB60F9211240BB60F92DB
:101910002F933F934F935F936F937F938F939F93F7
:10192000AF93BF93EF93FF938FE393E00E94E502A1
:10193000FF91EF91BF91AF919F918F917F916F91A7
:101940005F914F913F912F910F900BBE0F900FBE63
:101950000F901F9018951F920F920FB60F9211249F
:101960000BB60F922F933F934F935F936F937F9399
:101970008F939F93AF93BF93EF93FF938CED93E07F
:101980000E945903FF91EF91BF91AF919F918F9169
:101990007F916F915F914F913F912F910F900BBE6F
:1019A0000F900FBE0F901F9018951F920F920FB6B9
:1019B0000F9211240BB60F922F933F934F935F9387
:1019C0006F937F938F939F93AF93BF93EF93FF9307
:1019D0008CED93E00E94E502FF91EF91BF91AF91F2
:1019E0009F918F917F916F915F914F913F912F9137
:1019F0000F900BBE0F900FBE0F901F9018951F9267
:101A00000F920FB60F9211240BB60F922F933F93A4
:101A10004F935F936F937F938F939F93AF93BF93F6
:101A2000EF93FF9389E794E00E945903FF91EF91B0
:101A3000BF91AF919F918F917F916F915F914F91E6
:101A40003F912F910F900BBE0F900FBE0F901F90E4
:101A500018951F920F920FB60F9211240BB60F928A
:101A60002F933F934F935F936F937F938F939F93A6
:101A7000AF93BF93EF93FF9389E794E00E94E50251
:101A8000FF91EF91BF91AF919F918F917F916F9156
:101A90005F914F913F912F910F900BBE0F900FBE12
:101AA0000F901F9018951F920F920FB60F9211244E
:101AB0000BB60F922F933F934F935F936F937F9348
:101AC0008F939F93AF93BF93CF93DF93EF93FF9346
:101AD0002091170530E0F901ED5AFD4F8491F9018D
:101AE000E35FFD4FD491F901E953FE4FC491CC233C
:101AF00079F081110E948401EC2FF0E0EE0FFF1FBE
:101B0000E858FE4FA591B491EC91ED2381E009F4E2
:101B100080E020911B0530911C052F5F3F4F3093D3
:101B20001C0520931B0590911A05953618F096E038
:101B30009093160590911605943009F466C0B8F498
:101B40009230F1F0933009F444C090911905992333
:101B500009F46BC081117EC080911805882309F4B7
:101B600063C08091180561E00E94EB015EC0953072
:101B700009F457C0963049F791E09093E7054FC0BC
:101B80008111E3CF20911B0530911C0524363105CE
:101B900028F410921C0510921B05D7CF1092E70570
:101BA00010921A05E0911A0591E09E0F90931A0584
:101BB000F0E020911B0530911C05EE0FFF1FEA5E3F
:101BC000FA4F3087278310921C0510921B0593E073
:101BD00019C0813009F0B9CFE0911A0591E09E0F4C
:101BE00090931A05F0E020911B0530911C05EE0F33
:101BF000FF1FEA5EFA4F3087278310921C05109270
:101C00001B0594E090931605A0CF882359F22091EC
:101C10001B0530911C052536310508F496CF95E05B
:101C2000F1CF811192CFB5CF2F9AFF91EF91DF9134
:101C3000CF91BF91AF919F918F917F916F915F9164
:101C40004F913F912F910F900BBE0F900FBE0F90B1
:101C50001F90189580911805882321F08091180510
:101C600060E082CF2F98E1CF1F920F920FB60F92B4
:101C700011240BB60F922F933F934F935F936F9363
:101C80007F938F939F93AF93BF93CF93DF93EF9304
:101C9000FF938091B702C0912406D0E087FF23C054
:101CA00010928500109284008091B7028F5F80931C
:101CB000B7028091B702082E000C990B8C179D0774
:101CC00024F48091B7028C3074F18091840090915B
:101CD000850084349C4908F465C08091840090910B
:101CE0008500049661C08091B702082E000C990B04
:101CF0008C179D07CCF63091B70225E03203F00136
:101D00001124E851FA4F808186FFCECF3091B7027F
:101D10003203F0011124E851FA4F808160E08F73A3
:101D20000E94EB01C1CF8091840090918500309199
:101D3000B70225E03203F0011124E851FA4F418146
:101D40005281840F951F9093890080938800309171
:101D5000B7023203F0011124E851FA4F808186FF67
:101D60000CC03091B7023203F0011124E851FA4F50
:101D7000808161E08F730E94EB01FF91EF91DF9111
:101D8000CF91BF91AF919F918F917F916F915F9113
:101D90004F913F912F910F900BBE0F900FBE0F9060
:101DA0001F90189580E49CE99093890080938800A7
:101DB0008FEF8093B702E1CF1F920F920FB60F9271
:101DC00011240BB60F922F933F934F935F936F9312
:101DD0007F938F939F93AF93BF93EF93FF938091E4
:101DE000B900887F803609F44DC008F040C08832C1
:101DF00009F4A9C028F5803109F49DC0C8F48823EE
:101E000009F4FBC0883009F496C0FF91EF91BF91AF
:101E1000AF919F918F917F916F915F914F913F9182
:101E20002F910F900BBE0F900FBE0F901F90189523
:101E3000883109F488C0803241F78093130314C0BD
:101E4000803409F49DC040F48033B9F38833E9F657
:101E50008093130385ECB0C0803509F485C08835C4
:101E600009F496C0883489F60E942E0BCECF8839AB
:101E700009F48CC038F5883729F050F4883611F011
:101E8000803719F683E0809315031092B60257C08D
:101E9000883809F47BC0803919F0803809F0B5CF53
:101EA0008091B602803208F071C0E091B60281E004
:101EB0008E0F8093B6028091BB00F0E0EA56FD4F92
:101EC00080833DC0803B39F0E0F4803A09F479C06A
:101ED000883A09F09ACF84E0809315031092950216
:101EE00010929402E091CB02F091CC02199580916E
:101EF000940281110FC081E08093940210927402C9
:101F000009C0803C09F4A6CF883C09F4A3CF883BE4
:101F100009F07BCFE091950281E08E0F80939502CE
:101F2000F0E0EC58FD4F80818093BB0090919502CA
:101F30008091940229C08091F0028093BB0085ECCF
:101F40008093BC0062CF9091120380911103981787
:101F500058F5E091120381E08E0F80931203F0E0B8
:101F6000EF50FD4F8081E9CFE091120381E08E0FA9
:101F7000809312038091BB00F0E0EF50FD4F80830F
:101F800090911203809111039817C8F285E8D8CF79
:101F9000E091120381E08E0F809312038091BB00C9
:101FA000F0E0EF50FD4F80838091140381115CCFEE
:101FB00081E08093EF0284EA8093BC0010921503C5
:101FC00024CF85EC8093BC00109215038091B6025B
:101FD000803230F4E091B602F0E0EA56FD4F108214
:101FE0006091B60270E0E091C902F091CA0286E900
:101FF00092E019951092B60208CF1092130334CFD5
:10200000109242031092410348EE53E060E070E00A
:1020100040934303509344036093450370934603F6
:1020200083E192E09093400380933F0325E331E006
:1020300030934C0320934B0324E331E030934E0361
:1020400020934D0320E331E03093500320934F035E
:1020500021E331E0309352032093510322E331E036
:10206000309354032093530326E331E03093560317
:1020700020935503109258031092590310925A035B
:1020800010925B031092DF031092DE034093E00393
:102090005093E1036093E2037093E3039093DD03B5
:1020A0008093DC0325ED30E03093E9032093E803CF
:1020B00024ED30E03093EB032093EA0320ED30E091
:1020C0003093ED032093EC0321ED30E03093EF03E8
:1020D0002093EE0322ED30E03093F1032093F003E0
:1020E00026ED30E03093F3032093F2031092F503D2
:1020F0001092F6031092F7031092F80310927C04EA
:1021000010927B0440937D0450937E0460937F047F
:102110007093800490937A048093790485EC90E026
:10212000909386048093850484EC90E090938804D7
:102130008093870480EC90E090938A0480938904D4
:1021400081EC90E090938C0480938B0482EC90E07F
:1021500090938E0480938D0486EC90E0909390048D
:1021600080938F041092920410929304109294041E
:10217000109295048091070290910802A0910902A3
:10218000B0910A0280930E0790930F07A093100757
:10219000B093110780910B0290910C02A0910D0257
:1021A000B0910E028093120790931307A093140727
:1021B000B093150784E08093160787E08093170794
:1021C0001092180784EB8093190786E180931A0711
:1021D00088E180931B0787E180931C0789E1809346
:1021E0001D07E0912406EC3008F4ABC08FEF80931C
:1021F0001E07E0912406EC3008F4B4C08FEF809302
:102200001F078CE08093ED0684E28093EE0686E063
:102210008093EF0685E08093F0068FE18093F106CE
:102220008EE18093F20683E28093F30682E280934C
:10223000F40685E48093F50684E48093F60680E452
:102240008093F9061092FE061092FF061092000786
:1022500010920107109202071092030710920407D0
:1022600010920507EFE2F6E08FEF9FEFDC0112829C
:102270001382148215821682178210861186838734
:102280009487A587B6878787908BA18BB28B1286A0
:1022900011821082739626E0ED3EF20741F78DE041
:1022A00090E00E946418FC011382128285E292E0A1
:1022B00091838083118687E2848384E1828784E02E
:1022C00083871486F0932C06E0932B0610922D063C
:1022D00010922E0685E28093170510921905109230
:1022E00026061092250610922806109227061092B4
:1022F0002A061092290661E070E090E080E00E94DA
:102300008919009709F43FC090932606809325060B
:1023100010922806109227062091290630912A064D
:10232000232B11F4FC01108210922A061092290628
:1023300069E572E080912506909126060E94731A45
:1023400036C081E08E0F80932406E0931E0725E0BF
:10235000E29FF0011124E851FA4F88EB9BE0928351
:10236000818347CF81E08E0F80932406E0931F077F
:1023700085E0E89FF0011124E851FA4F88EB9BE0DB
:10238000928381833ECF8091250690912606009707
:1023900011F00E9400191092260610922506109244
:1023A0002A061092290610922806109227061092EB
:1023B00027071092260788EE93E0A0E0B0E0809314
:1023C000280790932907A0932A07B0932B0781E34E
:1023D00092E0909325078093240710923107109282
:1023E00030071092320786ED8093350781E090E048
:1023F00090933407809333070895CF93DF9300D0F1
:102400001F921F92CDB7DEB7789484B5826084BDE9
:1024100084B5816084BD85B5826085BD85B58160E8
:1024200085BD80916E00816080936E001092810066
:102430008091810082608093810080918100816021
:1024400080938100809180008160809380008091E2
:10245000B10084608093B1008091B000816080936E
:10246000B0008091910082608093910080919100F2
:1024700081608093910080919000816080939000B2
:102480008091A10082608093A1008091A100816071
:102490008093A1008091A00081608093A000809132
:1024A00021018260809321018091210181608093CC
:1024B00021018091200181608093200180917A0028
:1024C000846080937A0080917A00826080937A00A1
:1024D00080917A00816080937A0080917A00806890
:1024E00080937A001092C100E0918904F0918A04EF
:1024F00082E08083E0918504F09186041082E0916F
:102500008704F09188048FEC808310929104E0910D
:102510008D04F0918E0486E08083E0918B04F0912D
:102520008C04808180618083E0918B04F0918C0425
:10253000808188608083E0918B04F0918C0480819D
:1025400080688083E0918B04F0918C0480818F7D82
:10255000808361E08091EE060E94190260E0809124
:10256000EE060E94EB0160E08091ED060E941902E8
:1025700084E297E09093F8068093F7060E945D044A
:1025800080E090E1A0E0B0E08093FA069093FB0633
:10259000A093FC06B093FD068AE090E0A0E0B0E0D6
:1025A0008093FE069093FF06A0930007B093010767
:1025B00080E090E0A0E0B0E48093020790930307EE
:1025C000A0930407B093050760E070E185E00E94E6
:1025D00085056FE979E380E00E9485056FEEE62EC0
:1025E00066E0F62E0DEE16E071EFA72E76E0B72E20
:1025F000ECEF4E2EE1E05E2EF2E46F2EF2E07F2E45
:10260000ABECCA2EA7E0DA2EBBE88B2E992493946C
:10261000D70112969C91F70181917F01D8015996BB
:102620008C9359975A969C9361E00E94190261E03D
:10263000F801828D0E941902D70115969C91159779
:1026400013968C91F801858F968F61E00E94190294
:1026500060E0D8015E968C910E94190261E0F80159
:10266000858D0E94EB013FB6F8948091BD028111E7
:1026700025C0F2018491F3019491E82FF0E0EE0F70
:10268000FF1FED56FE4FA591B4918C91982321F434
:1026900061E085E30E94EB0161E085E30E9419029D
:1026A0008CB580618CBD8CB580648CBD61E084E3A9
:1026B0000E94190261E083E30E9419028091BD0229
:1026C0008F5F8093BD023FBEC6010197F1F760E0C6
:1026D000D8015D968C910E94EB0188E80E9410045D
:1026E00083E00E94100461E0F801858D0E94EB01F7
:1026F000C6010197F1F760E0D8015D968C910E94C8
:10270000EB0188E90E94100480E00E94100480E040
:102710000E94100480E00E94100480E00E941004D7
:1027200061E0F801858D0E94EB01C4010197F1F78A
:1027300060E0D8015D968C910E94EB0180EE0E94D2
:10274000100461E0F801858D0E94EB010E5F1F4FC0
:10275000A016B10609F05CCF02E117E03EE0E32EDF
:1027600037E0F32E46E1C42E47E0D42E60E0D801D6
:102770008D918D010E941902C016D106B9F706E1AC
:1027800017E0B2E1CB2EB7E0DB2E85E0B82E9CE05F
:10279000992E22E0A22EF80181908F0187818C3042
:1027A00008F046C061E0882D0E941902D8011796F2
:1027B0008C91B89EF0011124E851FA4F282D2F7307
:1027C0009081907C922B908313821482692D0E94B9
:1027D0001017899DA001112430E020E0BA01620F9A
:1027E000731FB69EF001B79EF00D1124E851FA4F09
:1027F000908196FD12C02F5F3F4F2C30310571F74D
:1028000081110BC010928000A0928100109285006F
:1028100010928400A6BAA0926F00D8011796EC918E
:10282000BE9EF0011124E851FA4F808180648083BC
:10283000F80195818381D70152968C9352975396D4
:102840009C9360E00E94190261E0F70183890E9475
:10285000190260E0D70153968C910E94EB01B2E01F
:10286000EB0EF11CCE14DF0409F095CFF894109212
:10287000200189E08093210180E293E09093290177
:1028800080932801109225011092240182E0809308
:10289000730078948093160510921A05809117059D
:1028A00060E00E94190261E08EE20E94190261E07C
:1028B0008CE20E94190261E08FE20E94190261E03D
:1028C0008DE20E9419020E945D040E948B098823F8
:1028D000C9F080E8898321E030E0AE014F5F5F4FAF
:1028E000BA0180913007909131070E94C706698133
:1028F0006F7E80E00E949D0664E670E080E090E0DC
:102900000E9486028FB7F8948090BF029090C00218
:10291000A090C102B090C2028FBFC12CD12CA0E800
:10292000EA2EAFE3FA2E260137010E941C0A019617
:1029300009F006C18FB7F8942091BF023091C00210
:102940004091C1025091C2022A833B834C835D8334
:102950008FBFDA01C90188199909AA09BB09843610
:102960009105A105B10508F388E30E944A028C0194
:1029700089E30E944A025C018AE30E944A02882499
:102980008394912C0132134014F0912C812C30E06F
:1029900020E041E2A41643E0B40614F422E030E063
:1029A000820E931E813293400CF45AC090E080E076
:1029B000880E991E8BE30E944A025C018CE30E9400
:1029C0004A028C018DE30E944A0221E030E0A1E23C
:1029D000AA16A3E0BA0614F030E020E050E040E090
:1029E0000132134014F442E050E0240F351F8132CD
:1029F0009340CCF190E080E0280F391FE3E0220FF4
:102A0000331FEA95E1F7820E931EF8E08F169104CA
:102A100009F489C00CF042C032E08316910489F1B8
:102A20002CF58114910409F487C08A94892809F44B
:102A300064C042E0C301B2010E94AF0887E592E0A2
:102A40000E945E0842E0C701B6010E94AF0887E518
:102A500092E00E945E088A809B80AC80BD8065CF3A
:102A600084E090E0A5CF84E090E0C6CF84E08816B3
:102A7000910409F44FC00CF440C0B6E08B169104E9
:102A8000C1F6C12CD12C40E8E42E4FE3F42E56E6DB
:102A9000452E542C642C5FE3752ECBCFE8E18E16C7
:102AA000910451F0B4F42CE082169104E1F130E18C
:102AB0008316910409F0BDCF26E6C22EDC2CEC2C47
:102AC0002FE3F22E412C512C80E8682E8FE3782ED4
:102AD000B0CF40E38416910449F05FE3851691047A
:102AE00059F180E28816910409F0A3CFC12CD12CB2
:102AF00090E4E92E9FE3F92EE5CFC12CD12C60E8BC
:102B0000E62E6FE3F62E412C512C70E4672E7FE306
:102B1000772E8FCF8BE492E00E945E0887E592E0EB
:102B20000E945E0886CFC12CD12C30E8E32E3FE313
:102B3000F32E260137017DCFC12CD12C7601F9CFA0
:102B40000E941C0A6C01990FEE08FF084AE0C701B9
:102B5000B601F7FE0DC06DE289E794E00E947B03A9
:102B600066277727CB016C197D098E099F094AE0FA
:102B70000E946B0887E592E00E945E080E94EB03CA
:102B8000C1CE8091250690912606009711F00C94F5
:102B9000001908950E940C1608F481E00895E89445
:102BA00009C097FB3EF490958095709561957F4F95
:102BB0008F4F9F4F9923A9F0F92F96E9BB27939543
:102BC000F695879577956795B795F111F8CFFAF453
:102BD000BB0F11F460FF1BC06F5F7F4F8F4F9F4F84
:102BE00016C0882311F096E911C0772321F09EE8E2
:102BF000872F762F05C0662371F096E8862F70E048
:102C000060E02AF09A95660F771F881FDAF7880F21
:102C10009695879597F90895990F0008550FAA0B77
:102C2000E0E8FEEF16161706E807F907C0F01216DF
:102C30001306E407F50798F0621B730B840B950BE2
:102C400039F40A2661F0232B242B252B21F4089537
:102C50000A2609F4A140A6958FEF811D811D0895D4
:102C60000E9443160C94B4160E94A61638F00E94D7
:102C7000AD1620F0952311F00C949D160C94A3161C
:102C800011240C94E8160E94C51670F3959FC1F3A9
:102C9000950F50E0551F629FF001729FBB27F00D0A
:102CA000B11D639FAA27F00DB11DAA1F649F66275F
:102CB000B00DA11D661F829F2227B00DA11D621FAE
:102CC000739FB00DA11D621F839FA00D611D221F68
:102CD000749F3327A00D611D231F849F600D211D4C
:102CE000822F762F6A2F11249F5750409AF0F1F0CF
:102CF00088234AF0EE0FFF1FBB1F661F771F881F38
:102D000091505040A9F79E3F510580F00C949D16BC
:102D10000C94E8165F3FE4F3983ED4F386957795DC
:102D20006795B795F795E7959F5FC1F7FE2B880FDD
:102D3000911D9695879597F9089597F99F6780E873
:102D400070E060E008959FEF80EC089500240A94FD
:102D50001616170618060906089500240A94121676
:102D60001306140605060895092E0394000C11F4A9
:102D7000882352F0BB0F40F4BF2B11F460FF04C056
:102D80006F5F7F4F8F4F9F4F089557FD9058440FAF
:102D9000551F59F05F3F71F04795880F97FB991FBA
:102DA00061F09F3F79F08795089512161306140677
:102DB000551FF2CF4695F1DF08C016161706180604
:102DC000991FF1CF86957105610508940895E894DF
:102DD000BB2766277727CB0197F90895A1E21A2E22
:102DE000AA1BBB1BFD010DC0AA1FBB1FEE1FFF1FAF
:102DF000A217B307E407F50720F0A21BB30BE40BFF
:102E0000F50B661F771F881F991F1A9469F7609545
:102E10007095809590959B01AC01BD01CF010895FF
:102E2000991B79E004C0991F961708F0961B881F1C
:102E30007A95C9F78095089597FB072E16F40094AC
:102E400007D077FD09D00E94381707FC05D03EF463
:102E5000909581959F4F0895709561957F4F089546
:102E6000EE0FFF1F881F8BBF0790F691E02D19947E
:102E7000AA1BBB1B51E107C0AA1FBB1FA617B707A0
:102E800010F0A61BB70B881F991F5A95A9F78095BC
:102E90009095BC01CD0108955058BB27AA270E94E8
:102EA00064170C94B4160E94A61638F00E94AD1652
:102EB00020F039F49F3F19F426F40C94A3160EF475
:102EC000E095E7FB0C949D16E92F0E94C51658F378
:102ED000BA17620773078407950720F079F4A6F5FF
:102EE0000C94E7160EF4E0950B2EBA2FA02D0B01D3
:102EF000B90190010C01CA01A0011124FF27591B3F
:102F000099F0593F50F4503E68F11A16F040A22F44
:102F1000232F342F4427585FF3CF469537952795B5
:102F2000A795F0405395C9F77EF41F16BA0B620BB4
:102F3000730B840BBAF09150A1F0FF0FBB1F661FFB
:102F4000771F881FC2F70EC0BA0F621F731F841F3E
:102F500048F4879577956795B795F7959E3F08F064
:102F6000B0CF9395880F08F09927EE0F9795879526
:102F700008950E94CD170C94B4160E94AD1658F017
:102F80000E94A61640F029F45F3F29F00C949D168C
:102F900051110C94E8160C94A3160E94C51668F300
:102FA0009923B1F3552391F3951B550BBB27AA2702
:102FB00062177307840738F09F5F5F4F220F331F3C
:102FC000441FAA1FA9F335D00E2E3AF0E0E832D004
:102FD00091505040E695001CCAF72BD0FE2F29D007
:102FE000660F771F881FBB1F261737074807AB07D9
:102FF000B0E809F0BB0B802DBF01FF2793585F4F4E
:103000003AF09E3F510578F00C949D160C94E8160A
:103010005F3FE4F3983ED4F3869577956795B7952F
:10302000F7959F5FC9F7880F911D9695879597F93A
:103030000895E1E0660F771F881FBB1F62177307B3
:103040008407BA0720F0621B730B840BBA0BEE1FC8
:1030500088F7E09508950E94CD1688F09F5798F064
:10306000B92F9927B751B0F0E1F0660F771F881F8D
:10307000991F1AF0BA95C9F714C0B13091F00E94A7
:10308000E716B1E008950C94E716672F782F88278C
:10309000B85F39F0B93FCCF3869577956795B395CE
:1030A000D9F73EF490958095709561957F4F8F4F3D
:1030B0009F4F08950E940C1608F48FEF08950E9408
:1030C0000C16880B990B08950F931F93CF93DF93E2
:1030D0008230910510F482E090E0E0913807F091A1
:1030E000390730E020E0B0E0A0E0309799F42115F6
:1030F000310509F44AC0281B390B24303105D8F5B5
:103100008A819B816115710589F1FB01938382831B
:10311000FE0111C040815181028113814817590776
:10312000E0F04817590799F4109761F012960C9344
:10313000129713961C933296CF01DF91CF911F9176
:103140000F9108950093380710933907F4CF211594
:10315000310551F04217530738F0A901DB019A01FC
:10316000BD01DF01F801C1CFEF01F9CF909339071D
:1031700080933807CDCFFE01E20FF31F8193919327
:103180002250310939832883D7CF209136073091D7
:103190003707232B41F4209103023091040230932E
:1031A0003707209336072091010230910202211542
:1031B000310541F42DB73EB740910502509106020A
:1031C000241B350BE0913607F0913707E217F30720
:1031D000A0F42E1B3F0B2817390778F0AC014E5F87
:1031E0005F4F2417350748F04E0F5F1F5093370786
:1031F00040933607819391939FCFF0E0E0E09CCF1E
:10320000CF93DF930097E9F0FC013297138212828B
:10321000A0913807B0913907ED0130E020E0109718
:10322000A1F420813181820F931F209136073091C4
:1032300037072817390709F061C0F0933707E09383
:103240003607DF91CF910895EA01CE17DF07E8F541
:103250004A815B819E0141155105B1F7E901FB836C
:10326000EA8349915991C40FD51FEC17FD0761F40A
:10327000808191810296840F951FE901998388834B
:10328000828193819B838A83F0E0E0E012968D91A6
:103290009C9113970097B9F52D913C911197CD0111
:1032A0000296820F931F2091360730913707281717
:1032B000390739F6309751F51092390710923807CF
:1032C000B0933707A0933607BCCFD383C283408126
:1032D0005181840F951FC817D90761F44E5F5F4F66
:1032E00088819981480F591F518340838A819B812E
:1032F000938382832115310509F0B0CFF09339070C
:10330000E09338079ECFFD01DC01C0CF138212820B
:10331000D7CF4F925F926F927F928F929F92AF9290
:10332000BF92CF92DF92EF92FF920F931F93CF93B2
:10333000DF938C01009799F4CB01DF91CF911F911E
:103340000F91FF90EF90DF90CF90BF90AF909F9044
:103350008F907F906F905F904F900C946418FC0159
:10336000E60FF71F9C0122503109E217F30708F41A
:10337000AEC0D901CD91DC911197C617D70720F1C6
:10338000C530D10578F0CE0104978617970750F025
:10339000C61BD70B2297C193D1936D937C93CF011A
:1033A0000E940019C801DF91CF911F910F91FF90EA
:1033B000EF90DF90CF90BF90AF909F908F907F90D5
:1033C0006F905F904F9008955B01AC1ABD0A4C015D
:1033D0008C0E9D1EA0913807B0913907512C412CBD
:1033E000F12CE12C109731F5809136079091370739
:1033F0008815990509F05CC04616570608F058C0B4
:103400008091010290910202009741F48DB79EB71E
:103410004091050250910602841B950BE817F907AD
:1034200008F055C0F0933707E0933607F901718330
:103430006083B8CF8D919C91119712966C901297E2
:1034400013967C901397A815B90559F56C0142E0C5
:10345000C40ED11CCA14DB0420F1AC014A195B096B
:10346000DA011296159780F062827382518340834D
:10347000D9016D937C93E114F10471F0D701139697
:10348000FC93EE9312978ECF22968C0F9D1FF9011D
:1034900091838083F301EFCFF0933907E0933807EE
:1034A00081CF4816590608F42C017D01D3019ACF2B
:1034B000CB010E9464187C01009749F0AE01B8016D
:1034C0000E946A1AC8010E94001987016BCF10E0A0
:1034D00000E068CFFB01DC0102C001900D92415079
:1034E0005040D8F70895FB01DC0101900D920020B7
:1034F000E1F7089511E0CEE4D1E000E006C0802FAE
:10350000FE010E9430172196011DCF34D10780E0C3
:083510000807A9F7F894FFCFAA
:10351800FF00003A078000363738391B1D1A1C0097
:103528000000007B03B802FE02C8032F030D03212D
:1035380003000000003A08B8029A061704000000C9
:103548000057062A069A0600062306100601066E8C
:10355800616E00696E66006F76660046756C6C2059
:0A356800476175636865000D0A00F5
:00000001FF
